:100000000C9435010C9452010C9452010C94520141
:100010000C9452010C942F020C9452010C94520136
:100020000C9452010C9452010C9452010C94520104
:100030000C9452010C9452010C9452010C945201F4
:100040000C943F0E0C9452010C9452010C945201EA
:100050000C94470D0C94050D0C9452010C94520114
:100060000C9452010C9452010C9452010C945201C4
:100070000C9452010C9452010C9452014A03FD025B
:10008000FD02FD024A031D031D033D03BC04BF0422
:10009000BF04BF04BC04C304C304C7044C69766531
:1000A000733A2531306400507265737320612062A9
:1000B0007574746F6E20746F207374617274206134
:1000C0006761696E0047414D45204F5645520053C8
:1000D000636F72653A25313064004C697665733A16
:1000E00025313064004C6576656C3A25313064000A
:1000F00047414D4520504155534544004C65766578
:100100006C3A25313064004C697665733A2531309C
:10011000640053636F72653A25313064004C657634
:10012000656C3A25313064004C697665733A253147
:1001300030640053636F72653A2531306400435375
:100140005345323031302F373230312070726F6A80
:10015000656374206279205775204C616920596964
:100160006E2034343131353030310046726F67677C
:1001700065720053636F72653A2531306400E9019E
:10018000E601E201DE01DA01D601D201CE01CA01A7
:10019000C6015802540250024C0248024402400276
:1001A0003C023902350231022D02280224022002CB
:1001B0001C02170213020F020A0206020102FC01CE
:1001C000F701F201ED016492927D6C92926D809E36
:1001D000A0C17C92924DE4A2A29D182848FF4492AF
:1001E000926D468A926342FE037C92A27D868A9239
:1001F000A2C3E0100E10E1C6281028C7FC021C02A2
:10020000FDF8040204F9FC0202FD8080FE80816496
:1002100092924DFE9098677C828A7C03FE9090615A
:100220007C82827DFE2010FFFE403040FFFE0202F5
:1002300003FE1028C7040202FD82FE83FE1010FF99
:100240007C82925DFE909081FE929283FE82827DFE
:100250007C828245FE92926D7E90907F1B5B324A3B
:10026000001B5B25643B2564480011241FBECFEFB3
:10027000D8E0DEBFCDBF11E0A0E0B1E0E4EBF5E2F5
:1002800002C005900D92A236B107D9F722E0A2E68E
:10029000B1E001C01D92A43BB207E1F70E943D0B03
:1002A0000C94D8120C940000E8E6F0E080818260A3
:1002B0008083D99AECE6F0E080818F608083109291
:1002C000660108958091660118163CF580916701DA
:1002D0006FB7F894909166019230B4F021E030E06D
:1002E00091E0F901E959FE4F4081F901EA59FE4FC9
:1002F00040839F5F292F30E040916601042E000C5F
:10030000550B241735076CF390916601915090932B
:10031000660166231CF4789408958FEF08950F9377
:100320001F93CF93DF938091620190916301A0911D
:100330006401B0916501892B8A2B8B2B09F489C04C
:10034000DFB7D078F894C3B1CF700E94020E00914D
:1003500062011091630120916401309165010617DB
:1003600017072807390708F061C080916B01C8138F
:100370005DC0C230D9F018F4C13031F04DC0C43086
:1003800039F1C830B9F148C00E94020EDC01CB013E
:1003900080579E4FAF4FBF4F809362019093630190
:1003A000A0936401B093650180E04FC00E94020EEB
:1003B000DC01CB0180579E4FAF4FBF4F809362014E
:1003C00090936301A0936401B093650181E03DC007
:1003D0000E94020EDC01CB0180579E4FAF4FBF4FF2
:1003E0008093620190936301A0936401B0936501CF
:1003F00082E02BC00E94020EDC01CB0180579E4F91
:10040000AF4FBF4F8093620190936301A09364014B
:10041000B093650183E019C01092620110926301EC
:1004200010926401109265018FEF0FC080916B01F3
:10043000C81751F01092620110926301109264018A
:10044000109265018FEF01C08FEFDD2319F07894D2
:1004500001C08FEFDF91CF911F910F9108951F92EF
:100460000F920FB60F9211242F933F934F935F93E8
:100470006F937F938F939F93AF93BF93CF93EF939C
:10048000FF93C3B1CF708091660184300CF08CC0B3
:10049000C23041F118F4C13041F07EC0C43009F4DB
:1004A0003FC0C83009F45AC077C0E091660181E0CE
:1004B0008E0F809366010E2E000CFF0BE959FE4F44
:1004C00010820E94020EDC01CB01845D9E4FAF4F73
:1004D000BF4F8093620190936301A0936401B09336
:1004E000650162C0E091660181E08E0F8093660134
:1004F0000E2E000CFF0BE959FE4F81E080830E9415
:10050000020EDC01CB01845D9E4FAF4FBF4F809345
:10051000620190936301A0936401B093650144C0AC
:10052000E091660181E08E0F809366010E2E000C33
:10053000FF0BE959FE4F82E080830E94020EDC012E
:10054000CB01845D9E4FAF4FBF4F8093620190936C
:100550006301A0936401B093650126C0E091660138
:1005600081E08E0F809366010E2E000CFF0BE9597F
:10057000FE4F83E080830E94020EDC01CB01845D8C
:100580009E4FAF4FBF4F8093620190936301A09342
:100590006401B093650108C010926201109263017A
:1005A0001092640110926501C0936B01FF91EF916D
:1005B000CF91BF91AF919F918F917F916F915F91FB
:1005C0004F913F912F910F900FBE0F901F90189554
:1005D0000F93262F603108F05BC0482F082E000CC7
:1005E000550B660B770B4830510528F4FA01E25C95
:1005F000FF4F0C944B0F81E04EC08150E82FF0E08C
:10060000DF01AE58BE4F0C91020F003408F00054C9
:10061000EE0FFF1FEE0FFF1FEE0FFF1FE45EFE4FFA
:1006200020813181428153816481758186819781E6
:100630000E94620F822F81702EC0855090E0FC01D5
:10064000E059FE4F6081260F203208F02052880FBB
:10065000991F880F991FFC01EC5EFE4F80819181EC
:10066000A281B38104C0B695A795979587952A95E1
:10067000D2F721E0822781700EC080916C019091A9
:100680006D0102C0969587952A95E2F7817003C0A7
:1006900081E001C080E00F91089580917501882369
:1006A00041F045E360917701809176010E94EA066E
:1006B000089540EF60917701809176010E94EA06EB
:1006C0000895CF93DF93CDB7DEB760970FB6F89458
:1006D000DEBF0FBECDBFFE0131969E012F5E3F4FA4
:1006E00091E19193E217F307E1F7BE016F5F7F4F4E
:1006F0000E94090760960FB6F894DEBF0FBECDBF0B
:10070000DF91CF9108953F924F925F926F927F92C7
:100710008F929F92AF92BF92CF92DF92EF92FF9211
:100720000F931F93CF93DF93CDB7DEB760970FB6CC
:10073000F894DEBF0FBECDBF482E282F30E0F90160
:10074000EE58FE4FE081C901880F991F880F991F4D
:10075000880F991F845E9E4FDC015C9011966C900F
:10076000119712967C90129713968C90139714966B
:100770009C90149715961C91159716963C90169779
:100780001796FC91CE0101967C016E0191E1C90E94
:10079000D11CD901A050BF4F5D01252D362D472D0D
:1007A000582D692D712F832D9F2F0E2F0E94620FC0
:1007B000217030E040E050E060E070E080E090E0E8
:1007C000A0E00E947E0F29F0D5018C91D7018C9377
:1007D00002C0D7011C92EF5FE03408F0E0E0BFEF09
:1007E000EB1AFB0AEC14FD04C1F6BE016F5F7F4FEC
:1007F00081E0840D0E94090760960FB6F894DEBF71
:100800000FBECDBFDF91CF911F910F91FF90EF9061
:10081000DF90CF90BF90AF909F908F907F906F9020
:100820005F904F903F900895CF92DF92EF92FF92AA
:10083000CF93DF93CDB7DEB760970FB6F894DEBFE6
:100840000FBECDBF282F30E0F901E059FE4F908157
:10085000220F331F220F331FF901EC5EFE4FC080C1
:10086000D180E280F380FE0131969E012F5E3F4FE2
:10087000ACE3B701A601092E04C07695679557959C
:1008800047950A94D2F740FF02C0A08301C01082AE
:100890009F5F903208F090E03196E217F30749F736
:1008A000BE016F5F7F4F8B5F0E94090760960FB696
:1008B000F894DEBF0FBECDBFDF91CF91FF90EF90D8
:1008C000DF90CF900895EF92FF920F931F93CF93F5
:1008D000DF93CDB7DEB760970FB6F894DEBF0FBEDB
:1008E000CDBFA0916E01B0916F01E0906C01F090CE
:1008F0006D01AE014F5F5F4FBE016F5E7F4FFA012A
:1009000000EF11E1CF01841B950B9D01082E02C061
:10091000369527950A94E2F720FF02C010830BC09A
:10092000970102C0369527958A95E2F720FF02C00D
:10093000008301C010823196E617F70719F7BE0150
:100940006F5F7F4F87E00E94090760960FB6F894AB
:10095000DEBF0FBECDBFDF91CF911F910F91FF90F2
:10096000EF900895482F50E04830510590F4FA0177
:10097000EA5BFF4F0C944B0F0E9461030895815076
:100980000E948303089585500E94140408950E94D4
:10099000630408951092770187E0809376011092A6
:1009A00075010E944D030895CF93809177010E94B5
:1009B000B204C0917701CF5F609176018C2F0E94C5
:1009C000E80280937501C09377010E944D038091E6
:1009D000750181111FC081E090E00E94570B80914A
:1009E0007501811117C080917701873099F481E0FA
:1009F00090E00090760102C0880F991F0A94E2F7F8
:100A000020916C0130916D01822B932B90936D019D
:100A100080936C01CF910895CF93809177010E94CC
:100A2000B204C0917701C150609176018C2F0E9471
:100A3000E80280937501C09377010E944D03809175
:100A40007501811117C080917701873099F481E099
:100A500090E00090760102C0880F991F0A94E2F797
:100A600020916C0130916D01822B932B90936D013D
:100A700080936C01CF910895CF93809177010E946C
:100A8000B204C0917601C1506C2F809177010E9411
:100A9000E80280937501C09376010E944D03809116
:100AA0007501811117C080917701873099F481E039
:100AB00090E00090760102C0880F991F0A94E2F737
:100AC00020916C0130916D01822B932B90936D01DD
:100AD00080936C01CF910895CF93809177010E940C
:100AE000B204C0917601CF5F6C2F809177010E9494
:100AF000E80280937501C09376010E944D038091B6
:100B00007501811117C080917701873099F481E0D8
:100B100090E00090760102C0880F991F0A94E2F7D6
:100B200020916C0130916D01822B932B90936D017C
:100B300080936C01CF91089581E020916C013091F8
:100B40006D012F3F3F4F09F080E0089581E09091C3
:100B50007701973009F080E008958091750108953C
:100B600081E08093750108950F931F93CF93DF93D6
:100B7000C09177010C2E000CDD0B282F30E089018D
:100B80000F5F1F4FF901EE58FE4F9081961B32F414
:100B9000F901EE58FE4F9FE390830BC090342CF484
:100BA000F901EE58FE4F908304C0F901EE58FE4F54
:100BB00010820E948303C017D10751F4609176011F
:100BC000809177010E94E802809375010E944D0395
:100BD000DF91CF911F910F9108950F931F93CF93A2
:100BE000DF93C09177010C2E000CDD0B282F30E035
:100BF00089010B5F1F4FC017D107C9F4613041F461
:100C0000909176019F3071F491E0909375010FC03F
:100C10006F3F41F490917601911104C091E090935F
:100C2000750105C090917601960F90937601F901B8
:100C3000E059FE4F9081961B32F4F901E059FE4FC6
:100C40009FE190830BC090322CF4F901E059FE4FE4
:100C5000908304C0F901E059FE4F10820E941404F1
:100C6000C017D10711F40E944D03DF91CF911F915E
:100C70000F9108950E944A0780E00E94610384E07A
:100C80000E94610380E00E94830381E00E9483034D
:100C900082E00E94830380E00E94140481E00E94AD
:100CA00014040E9463040895E2E7F1E012821182C5
:100CB0001082E0E7F1E0118210828DED9DED9093BE
:100CC0006F0180936E0190936D0180936C010E947F
:100CD0003A060E94CA04089580E480937C0086E866
:100CE00080937A00089586E480937C00EAE7F0E040
:100CF000808180648083808186FDFDCF8091780033
:100D0000909179009093800180937F0187E4809394
:100D10007C00EAE7F0E0808180648083808186FD4A
:100D2000FDCF809178009091790090937E0180931F
:100D30007D0108950F931F93CF930E9473068091B6
:100D40007F01909180018A3F910588F020917D017B
:100D500030917E012A3F310560F0893F924058F47E
:100D6000C1E0293F324008F0C0E0C19505C0C3E0B2
:100D700003C0C2E001C0C1E080917C01C81313C070
:100D80000E94020E009178011091790120917A0160
:100D900030917B0106501F4F2F4F3F4F6017710757
:100DA0008207930770F0C0937C010E94020E60934B
:100DB00078017093790180937A0190937B018C2F55
:100DC00001C08FEFCF911F910F91089580E80E948D
:100DD0009A0D08951F93CF93DF938031B0F468305C
:100DE000A0F4142FC62FD82F81E00E94C20D6C2FC3
:100DF000677080E1689F900111248D2F8F70822B86
:100E00000E94C20D812F0E94C20DDF91CF911F91D0
:100E100008950F931F93CF93DF93883090F48B0145
:100E2000C82F82E00E94C20D8C2F87700E94C20DD5
:100E3000E801005F1F4F89910E94C20DC017D107C2
:100E4000D1F7DF91CF911F910F9108950F931F93C9
:100E5000CF93DF93803190F48B01C82F83E00E9401
:100E6000C20D8C2F8F700E94C20DE801085F1F4FCA
:100E700089910E94C20DC017D107D1F7DF91CF91A0
:100E80001F910F91089584E00E94C20D82E00E949C
:100E9000C20D08958FE00E94C20D0895109298012E
:100EA0000895809198018F5F8093980108958091B3
:100EB0009801089581B18F6081B982B1807F82B934
:100EC000089581E090918101911180E008958091D1
:100ED0008101089582B1807F82B980918101882348
:100EE00091F080E041E050E092B19A01082E02C0FA
:100EF000220F331F0A94E2F7292B22B98F5F9091BA
:100F00008101891788F308958091040180938101FC
:100F10000E946A07089580918101909103018917C9
:100F200018F48F5F809381010E946A070895809171
:100F30008101882319F08150809381016FE070E076
:100F400087E390E00E94C80D809181011F928F93EA
:100F50008CE990E09F938F930E94C80F0E946A07CC
:100F60000F900F900F900F9008950E94E6060E9438
:100F7000540140E060E07BE480E090E00E94B20C2D
:100F80000E94E20D0E946C060E945A077894089510
:100F90000E94D90D6AE070E08AE090E00E94C80DDE
:100FA0008BE691E09F938F930E94C80F6CE070E0F6
:100FB0008AE090E00E94C80D8EE391E09F938F93AA
:100FC0000E94C80F0E944A070F900F900F900F9039
:100FD00060EF84E391E00E947B0B0DC02FE789EA6C
:100FE00093E0215080409040E1F700C000000E9453
:100FF00062018F3F29F40E948A0B8111EFCFE8CF65
:101000000895109282010E9454060E94D90D0E94F8
:101010004E070E94540B0E9484070E941C0E0E94DF
:10102000100E0E9462010E94000D6EE070E087E3E6
:1010300090E00E94C80D0E94750B9F938F937F9341
:101040006F9383E391E09F938F930E94C80F6FE0AB
:1010500070E087E390E00E94C80D0E9467071F922E
:101060008F9388E291E09F938F930E94C80F60E175
:1010700070E087E390E00E94C80D0E9457071F921E
:101080008F938DE191E09F938F930E94C80F8DB74E
:101090009EB70E960FB6F8949EBF0FBE8DBF0895F3
:1010A0002F923F924F925F926F927F928F929F9278
:1010B000AF92BF92CF92DF92EF92FF920F931F9366
:1010C000CF93DF9300D01F92CDB7DEB70E94020E00
:1010D0000E943A060E94CA048EE10E94240E1A82DF
:1010E00019820F2EF4E63F2EF02D0F2EF2E32F2E55
:1010F000F02D00E00F2EF0EFAF2EF0E0BF2EF02D20
:101100000F2EF2E1CF2EF1E0DF2EF02D0F2EF7E0C3
:10111000EF2EF1E0FF2EF02D0F2EFEEA8F2EF2E0E3
:101120009F2EF02D8CC10E94AD0581110DC00E9433
:10113000A605882349F08AE090E00E94570B0E94A0
:10114000CA048EE10E94240E0E94360E81110E9474
:10115000B0050E94AD05882321F00E9497070E94E8
:10116000CA040E946201182F8F3FF9F40E94F90C03
:10117000882309F480C1F401808191810E948A0F43
:101180008B83F981F11103C08B3189F46FC12981FF
:10119000213031F43B813B3509F46BC1098307C031
:1011A0008981823009F455C15BC19FEF9B830E9406
:1011B0009A06EA81E11165C1133011F40FC0098369
:1011C0009B819F7D9C3451F09FEF833051F406C08A
:1011D0000983FFEFFB8302C02FEF2B830E943C05A6
:1011E00054C1123041F0913431F02B812F7D2535DF
:1011F00011F0811103C00E94D40447C1113031F0B5
:10120000923421F0243411F0823019F40E940C053C
:101210003CC1112331F0933421F0223511F081309B
:1012200019F40E946C0531C10E948F01813071F068
:101230001CF4882371F010C0823029F0833061F4EF
:101240000E943C0522C10E94D4041FC10E940C05CB
:101250001CC10E946C0519C13B81303721F08B8184
:10126000803509F05CC09A81992309F443C001C01C
:1012700009830E94D90D6EE070E087E390E00E9440
:10128000C80D0E94750B9F938F937F936F93DF928E
:10129000CF920E94C80F6FE070E087E390E00E9459
:1012A000C80D0E9467071F928F93FF92EF920E94D2
:1012B000C80F60E170E087E390E00E94C80D0E94D3
:1012C00057071F928F93ECEFF0E0FF93EF930E948C
:1012D000C80F0E94100E0E94020E2B013C010E94BA
:1012E000AD050FB6F894DEBF0FBECDBF882311F158
:1012F0000A83A3C06EE070E08AE090E00E94C80D0F
:10130000BF92AF920E94C80F0E94170E0E94020E59
:101310000E94AD050F900F90F1E0FA838EC00E94FD
:10132000020E2B013C010E94AD05811186C02A816D
:10133000211183C00E945707389EC00111249C01CF
:1013400028513C4F032E000C440B550BC301B20136
:101350000E940A0F672B682B692B31F461E0802F04
:101360000E94B4050A8369C00E945707289EC001E5
:1013700011249C01245B3B4F032E000C440B550BA6
:10138000C301B2010E940A0F672B682B692B31F44D
:101390006FEF81E00E94B4050A834FC00E94570797
:1013A000289EC00111249C01205E3C4F032E000C9E
:1013B000440B550BC301B2010E940A0F672B682B27
:1013C000692B31F461E082E00E94B4050A8335C0E4
:1013D0000E945707289EC00111249C012C573C4FA6
:1013E000032E000C440B550BC301B2010E940A0FDF
:1013F000672B682B692B31F46FEF802F0E94ED056E
:101400000A831BC00E945707289EC00111249C011B
:1014100022583B4F032E000C440B550BC301B20165
:101420000E940A0F672B682B692B31F461E081E081
:101430000E94ED050A8301C00A830E946A070E9488
:101440006107811144C00E949C05882309F46BCE7A
:101450003EC00E949A063A813323E1F0098329C0F5
:101460000E949A069A81911127C0A9CEE1E0E983F2
:1014700002C0F2E0F9830E949A062A81222391F0A9
:1014800018C03B813037F1F4F4CE8B81803709F0FE
:10149000E6CE30CF9B81943409F49ACE0983EFEFE6
:1014A000EB8393CE833009F497CE9FEFFFEFFB835E
:1014B0009CCE2FEF2B83D3CE3B81303709F4D8CE8F
:1014C0000983CDCE8B81803509F029CFD2CE0F9004
:1014D0000F900F90DF91CF911F910F91FF90EF90A0
:1014E000DF90CF90BF90AF909F908F907F906F9044
:1014F0005F904F903F902F9008950F931F93CF933D
:10150000DF93CDB7DEB728970FB6F894DEBF0FBED6
:10151000CDBF0E94310E0E9451070E9457078230B2
:1015200010F00E948B070E94D90D60E170E087E304
:1015300090E00E94C80D0E9457071F928F9385EE7E
:1015400090E09F938F930E94C80F6FE070E087E355
:1015500090E00E94C80D0E9467071F928F938AED4A
:1015600090E09F938F930E94C80F6EE070E087E336
:1015700090E00E94C80D0E94750B9F938F937F93FC
:101580006F938FEC90E09F938F930E94C80F0E94FF
:101590004A070E9457071F928F9385E491E09F931B
:1015A0008F938E010F5F1F4F1F930F930E94EE0FBB
:1015B0006FEDC8010E947B0B0FB6F894DEBF0FBE23
:1015C000CDBF10C00E9462018F3F19F00E945406E7
:1015D0000DC09FE729EA83E0915020408040E1F769
:1015E00000C000000E948A0B8111ECCF28960FB634
:1015F000F894DEBF0FBECDBFDF91CF911F910F9149
:10160000089581E0809382010E94310E0E944A0772
:101610006EE070E08AE090E00E94C80D85EC90E0FA
:101620009F938F930E94C80F6FE070E08AE090E074
:101630000E94C80D87EA90E09F938F930E94C80F85
:101640000F900F900F900F9060EF8EE491E00E944A
:101650007B0B0DC02FE786E294E021508040904044
:10166000E1F700C000000E9462018F3F29F40E9450
:101670008A0B8111EFCFE8CF08950E94B5070E9431
:10168000C8070E9401080BC00E946107882319F057
:101690000E94010B04C00E947D0A0E9450088091A4
:1016A0008201882389F3EDCF1092990108959091DA
:1016B0009901890F809399016EE070E087E390E0D3
:1016C0000E94C80D809199011F921F921F928F93C3
:1016D00083E791E09F938F930E94C80F0F900F9024
:1016E0000F900F900F900F9008956091990170E006
:1016F00080E090E0089560930501909387018093C6
:101700008601109289011092880110928501109231
:10171000840108950F931F93CF93DF93CDB7DEB766
:1017200028970FB6F894DEBF0FBECDBFE0918801B9
:10173000F0918901309781F0149110FF06C010924A
:1017400089011092880100E06BC03196F093890105
:10175000E093880100E064C0E0918401F09185018C
:10176000309709F449C0CF01019690938501809389
:101770008401E081E1110AC0109285011092840178
:1017800080E18093830100E010E04AC08FE98E0F72
:101790008A3170F4F0E0EE0FFF1FE053FF4F8591A8
:1017A0009491909389018093880100E010E038C003
:1017B0008FEB8E0F8A3170F4F0E0EE0FFF1FE05FC9
:1017C000FE4F85919491909389018093880100E068
:1017D00010E026C080ED8E0F8A3000F5F0E0EE0FAD
:1017E000FF1FE25EFE4F8591949190938901809353
:1017F000880100E010E014C080918601909187017B
:1018000001E0009709F000E0909385018093840146
:10181000109287011092860110E002C000E010E0F3
:101820000E94430720910501FE013896CE010196E2
:10183000112314F4208301C01082110F3197E8178F
:10184000F907B1F71982BE016F5F7F4F8FE00E94E9
:10185000260780918301882389F08150809383013A
:10186000002311F0882311F090E003C091E001C043
:1018700091E081E0992329F080E003C00023A1F3E7
:10188000F7CF28960FB6F894DEBF0FBECDBFDF911D
:10189000CF911F910F910895CF93C82F8A3019F4DB
:1018A0008DE00E944C0C9FB7907802C0992329F1DB
:1018B00080919B018F3FD1F3F894E0919A0181E0F0
:1018C0008E0F80939A01F0E0E456FE4FC083809122
:1018D0009B018F5F80939B0180919A018F3F11F450
:1018E00010929A01E1ECF0E080818062808399237C
:1018F00039F0789480E090E005C081E090E002C08B
:1019000080E090E0CF9108958091AD028823E1F3CB
:101910002FB72078F89480919B023091AD0290E02F
:10192000831B91095AF4E0919B028091AD02F0E093
:10193000E81BF109E455FD4F80810AC0E0919B024C
:101940008091AD02F0E0E81BF109E456FD4F808183
:101950009091AD0291509093AD02222309F07894BA
:1019600090E0089510929A0110929B0110929B02B0
:101970001092AD021092AC0240938A01DC01CB01BF
:10198000880F991FAA1FBB1F880F991FAA1FBB1F73
:101990009C01AD01220F331F441F551F60E072E10F
:1019A0008AE790E00E942C0FBA01A9014F5F5F4FB8
:1019B0006F4F7F4FDB01CA011AF40196A11DB11DC3
:1019C000B595A7959795879501979093C5008093B6
:1019D000C400E1ECF0E088E180838081806880834E
:1019E000EEEAF2E086E091E0938382839183808344
:1019F00008959091AD0281E0911101C080E00895B9
:101A000010929B021092AD0208951F920F920FB692
:101A10000F9211242F938F939F93EF93FF938091B5
:101A20009B01882329F180919A0120919B0190E0EC
:101A3000821B91095AF4E0919A0180919B01F0E098
:101A4000E81BF109E556FD4F90810AC0E0919A012B
:101A500080919B01F0E0E81BF109E456FE4F908174
:101A600080919B01815080939B019093C60005C09B
:101A7000E1ECF0E080818F7D8083FF91EF919F9179
:101A80008F912F910F900FBE0F901F9018951F925E
:101A90000F920FB60F9211242F933F934F935F93A2
:101AA0006F937F938F939F93AF93BF93CF93EF9356
:101AB000FF93C091C60080918A01882349F08091EC
:101AC0009B018F3F29F060E070E08C2F0E944C0C4E
:101AD0008091AD02803120F081E08093AC0218C08B
:101AE000CD3009F4CAE0E0919B0281E08E0F809333
:101AF0009B02F0E0E456FD4FC0838091AD028F5F02
:101B00008093AD0280919B02803111F410929B0270
:101B1000FF91EF91CF91BF91AF919F918F917F9165
:101B20006F915F914F913F912F910F900FBE0F904A
:101B30001F90189594B1906B94B92C9A90E59CBD28
:101B4000883021F0803211F0823019F491E09DBD8F
:101B500001C01DBC803269F028F4883071F08031FA
:101B600061F00EC0803429F0803851F48CB581606A
:101B70008CBD8CB582608CBD03C08CB581608CBD82
:101B80002C9808958EBD0DB407FEFDCF8EB5089537
:101B90009F938F937F936F9381E692E09F938F93B0
:101BA0000E94C80F0F900F900F900F900F900F9002
:101BB00008958CE592E09F938F930E94C80F0F9039
:101BC0000F90089510929401109295011092960131
:101BD000109297011092900110929101109292012F
:101BE0001092930116BC8CE787BD82E084BD83E030
:101BF00085BDEEE6F0E080818260808385B38270EF
:101C000085BB08952FB7F894609194017091950168
:101C1000809196019091970122230CF47894089575
:101C200081E090E090938F0180938E01089510924F
:101C30008F0110928E0108958FEF87B9529A1092FA
:101C40008D0110928C01089528EE33E0482F429FB9
:101C5000C001439F900D112490938D0180938C01BE
:101C6000089510928D0110928C01089520918C019D
:101C700030918D0181E0232B09F080E008951F92BF
:101C80000F920FB60F9211242F933F934F935F93B0
:101C90006F937F938F939F93AF93BF93EF93FF9334
:101CA0008091940190919501A0919601B091970136
:101CB0000196A11DB11D8093940190939501A0936D
:101CC0009601B093970180918E0190918F01892B9D
:101CD00011F18091900190919101A0919201B091A8
:101CE00093010196A11DB11D8093900190939101E4
:101CF000A0939201B093930180918C0190918D01FA
:101D0000892B49F080918C0190918D0101979093DE
:101D10008D0180938C0180918B018F5F80938B016B
:101D200080918B01843010F010928B0180918B0197
:101D3000869520918C0130918D01232B09F453C09D
:101D400020918C0130918D0128513C4F81112FC081
:101D5000369527953695279536952795A5ECB0E2CB
:101D60000E94510FAC01529542954F7045275F700C
:101D700045279A01ADECBCEC0E94510F96958795D2
:101D800096958795969587959C01220F331F880F0E
:101D9000991F880F991F880F991F820F931F481B47
:101DA000590BFA01E85AFE4F808188B921C02131D0
:101DB00087E23807B0F0329522952F7023273F70C5
:101DC0002327A7E4B3E00E94510F96958795969537
:101DD000879596958795FC01E85AFE4F808188B9D2
:101DE00005C018B803C018B8882311F05A9A01C06A
:101DF0005A98FF91EF91BF91AF919F918F917F91F1
:101E00006F915F914F913F912F910F900FBE0F9067
:101E10001F901895A1E21A2EAA1BBB1BFD010DC035
:101E2000AA1FBB1FEE1FFF1FA217B307E407F5078A
:101E300020F0A21BB30BE40BF50B661F771F881F66
:101E4000991F1A9469F760957095809590959B01FC
:101E5000AC01BD01CF010895052E97FB1EF400943F
:101E60000E94430F57FD07D00E940A0F07FC03D0C2
:101E70004EF40C94430F50954095309521953F4F6B
:101E80004F4F5F4F089590958095709561957F4F66
:101E90008F4F9F4F0895EE0FFF1F0590F491E02D97
:101EA0000994A29FB001B39FC001A39F700D811D33
:101EB0001124911DB29F700D811D1124911D089553
:101EC00097FB10F8169400080F93083098F008500C
:101ED000232F342F452F562F672F782F892F902DA2
:101EE000F4CF05949795879577956795579547957E
:101EF000379527950A95AAF70F9108950024A7FD15
:101F000000942A17300540055005600570058005CE
:101F100090050895CF93DF93EC012B8120FF33C010
:101F200026FF0AC02F7B2B838E819F8101969F8382
:101F30008E838A8190E029C022FF0FC0E881F98159
:101F40008081082E000C990B009719F420622B83D6
:101F50001AC03196F983E8830EC0EA85FB8509959E
:101F600097FF09C02B81019611F080E201C080E14A
:101F7000822B8B8308C02E813F812F5F3F4F3F8391
:101F80002E83992702C08FEF9FEFDF91CF910895A5
:101F9000A0E0B0E0EEECFFE00C94AF12AE01495FC0
:101FA0005F4FDA016D917D91AD010EEA12E0F8010B
:101FB00082819381DC0113962C91139728601396EC
:101FC0002C930E941010D8011296ED91FC9113975A
:101FD0002381277F2383E4E00C94CB12AEE0B0E0B2
:101FE000E4EFFFE00C94AF120D891E8986E08C832C
:101FF0001A8309838FEF9FE79E838D83AE01475E2F
:102000005F4F6F89788DCE0101960E941010EF818D
:10201000F885E00FF11F10822E96E4E00C94CB12AD
:10202000ABE0B0E0E6E1F0E10C94A1126C017B01C1
:102030008A01FC0117821682838181FFCCC1CE0107
:1020400001963C01F6019381F70193FD859193FF81
:1020500081917F01882309F4BAC1853239F493FD57
:10206000859193FF81917F01853229F4B60190E03B
:102070000E940712E7CF912C212C312CFFE1F315A0
:10208000D8F08B3279F038F4803279F08332A1F4D1
:10209000232D20611DC08D3261F0803369F4232D22
:1020A000216016C0832D8260382EE32DE4603E2E21
:1020B0002AC0F32DF8601DC037FC2DC020ED280F7D
:1020C0002A3040F08E32B9F436FC81C1232D2064D1
:1020D000322E19C036FE06C08AE0989E200D1124CB
:1020E000922E11C0EAE02E9E200D1124222EF32DF7
:1020F000F0623F2E08C08C3621F4832D8068382E84
:1021000002C0883641F4F70193FD859193FF8191D8
:102110007F018111B3CF982F9F7D9554933028F480
:102120000C5F1F4F9FE399830DC0833631F08337D7
:1021300071F0833509F059C021C0F801808189838D
:102140000E5F1F4F88248394912C530113C02801E4
:10215000F2E04F0E511CF801A080B18036FE03C0A2
:10216000692D70E002C06FEF7FEFC5010E94FC1186
:102170004C018201F32DFF773F2E16C0280122E08B
:10218000420E511CF801A080B18036FE03C0692DBB
:1021900070E002C06FEF7FEFC5010E94F1114C01AA
:1021A000F32DF0683F2E820133FC1BC0822D90E09E
:1021B00088169906B0F4B60180E290E00E940712FA
:1021C0002A94F4CFF50137FC859137FE81915F01A8
:1021D000B60190E00E94071221102A9421E0821A91
:1021E00091088114910471F7E8C0843611F08936A2
:1021F00041F5F80137FE07C06081718182819381CA
:102200000C5F1F4F08C060817181072E000C880B86
:10221000990B0E5F1F4FF32DFF763F2E97FF09C0DE
:1022200090958095709561957F4F8F4F9F4FF06887
:102230003F2E2AE030E0A3010E944312882E861828
:1022400045C0853731F4232D2F7EB22E2AE030E0B1
:1022500025C0932D997FB92E8F36C1F018F488359B
:1022600079F0B5C0803719F0883721F0B0C0E92F78
:10227000E061BE2EB4FE0DC0FB2DF460BF2E09C080
:1022800034FE0AC0292F2660B22E06C028E030E0B6
:1022900005C020E130E002C020E132E0F801B7FEE5
:1022A00007C060817181828193810C5F1F4F06C0DE
:1022B0006081718180E090E00E5F1F4FA3010E945A
:1022C0004312882E8618FB2DFF773F2E36FE0DC059
:1022D000232D2E7FA22E891458F434FE0BC032FC1D
:1022E00009C0832D8E7EA82E05C0B82CA32C03C058
:1022F000B82C01C0B92CA4FE0FC0FE01E80DF11DE1
:102300008081803321F49A2D997EA92E09C0A2FEE6
:1023100006C0B394B39404C08A2D867809F0B394B0
:10232000A3FC11C0A0FE06C0B21488F4280C922CA5
:102330009B180EC0B21460F4B60180E290E00E94D7
:102340000712B394F7CFB21418F42B1802C0982CCC
:10235000212CA4FE10C0B60180E390E00E94071279
:10236000A2FE17C0A1FC03C088E790E002C088E588
:1023700090E0B6010CC08A2D867859F0A1FE02C00B
:102380008BE201C080E2A7FC8DE2B60190E00E94E2
:102390000712891438F4B60180E390E00E94071216
:1023A0009A94F7CF8A94F301E80DF11D8081B6016C
:1023B00090E00E9407128110F5CF222009F442CE4E
:1023C000B60180E290E00E9407122A94F6CFF6014F
:1023D0008681978102C08FEF9FEF2B96E2E10C94EC
:1023E000BD12FC010590615070400110D8F7809536
:1023F00090958E0F9F1F0895FC01615070400190D1
:102400000110D8F7809590958E0F9F1F08950F9318
:102410001F93CF93DF93FB01238121FD03C08FEF37
:102420009FEF2CC022FF16C0468157812481358141
:102430004217530744F4A081B1819D012F5F3F4FA4
:10244000318320838C93268137812F5F3F4F3783E1
:10245000268314C08B01EC01FB010084F185E02D83
:102460000995892BE1F6D80116968D919C911797C5
:10247000019617969C938E931697CE01DF91CF917C
:102480001F910F910895FA01AA27283051F12031A8
:1024900081F1E8946F936E7F6E5F7F4F8F4F9F4FF8
:1024A000AF4FB1E03ED0B4E03CD0670F781F891F3A
:1024B0009A1FA11D680F791F8A1F911DA11D6A0F08
:1024C000711D811D911DA11D20D009F468943F91BB
:1024D0002AE0269F11243019305D3193DEF6CF01BA
:1024E0000895462F4770405D4193B3E00FD0C9F780
:1024F000F6CF462F4F70405D4A3318F0495D31FDED
:102500004052419302D0A9F7EACFB4E0A69597953F
:10251000879577956795BA95C9F700976105710515
:1025200008959B01AC010A2E06945795479537955F
:102530002795BA95C9F7620F731F841F951FA01DB9
:1025400008952F923F924F925F926F927F928F9257
:102550009F92AF92BF92CF92DF92EF92FF920F9332
:102560001F93CF93DF93CDB7DEB7CA1BDB0B0FB63C
:10257000F894DEBF0FBECDBF09942A8839884888F9
:102580005F846E847D848C849B84AA84B984C8848F
:10259000DF80EE80FD800C811B81AA81B981CE0F86
:1025A000D11D0FB6F894DEBF0FBECDBFED0108956B
:0425B000F894FFCFCD
:1025B4000FDF0F04030F00000003000000004C0CA9
:1025C400840C0000F8789CF19C1DF6E698C118C3B1
:1025D40098C118C31C0EC7E170703838C7C3070F01
:1025E4000F0F0F0F46524F474745522034343131B5
:1025F40035303031004C4556454C20256900474163
:102604004D45204F564552003F065B4F666D7D0792
:022614007F6FD6
:00000001FF
